S00E00004858313233302E73726563B0
S11300000C942A000C943F000C943F000C943F0085
S11300100C943F000C943F000C943F000C943F0060
S11300200C943F000C943F000C943F000C943F0050
S11300300C943F000C943F000C943F000C943F0040
S11300400C943F000C943F000C943F000C943F0030
S11300500C943F0011241FBECFE5D8E0DEBFCDBF16
S113006011E0A0E6B0E0E6E6F3E002C005900D92F0
S1130070A833B107D9F70E94FC000C94B1010C9489
S11300800000A998AA9AAB9AAB9827E030E090E0D8
S1130090AC01022E02C0559547950A94E2F740FF41
S11300A002C0AA9A01C0AA98AB9AAB982150310910
S11300B078F7A99A0895A998AA98AB9AAB9827E0DB
S11300C030E090E0AC01022E02C0559547950A94A9
S11300D0E2F740FF02C0AA9A01C0AA98AB9AAB9873
S11300E02150310978F7A99A089584B38F6084BBAD
S11300F0AB98A8982FEF80E792E021508040904081
S1130100E1F700C00000A89AA9988FE99FE0019741
S1130110F1F700C00000A99A8FE99FE00197F1F779
S113012000C000008FE20E945B0080E90E945B0037
S113013086EA0E945B0084EA0E945B008FEA0E94C8
S11301405B0080E40E945B0080EB0E945B0080E126
S11301500E945B0080E00E945B000895CF93C82F4B
S113016080EB860F0E945B008C2F8F7782958F70B7
S113017080610E945B008C2F8F700E945B00CF9186
S11301800895CF93DF9360E080E00E94AE00D9E051
S113019007C080E00E944100C150D9F7D15011F04E
S11301A0C1E6F7CFDF91CF910895CF93DF9360E05D
S11301B080E00E94AE00D9E007C08FEF0E944100AA
S11301C0C150D9F7D15011F0C0E6F7CFDF91CF91EC
S11301D008950F931F93CF93DF93EC018C010A5F73
S11301E01F4F89910E944100C017D107D1F7DF91B9
S11301F0CF911F910F9108950E9475002FEF89E60A
S113020098E1215080409040E1F700C000000E9436
S1130210D5002FEF87EA91E6215080409040E1F726
S113022000C000000E94C10060E080E00E94AE00B7
S113023082E391E00E94E9008CE291E00E94E900EF
S113024086E291E00E94E90080E291E00E94E900E8
S11302508AE191E00E94E90084E191E00E94E900D2
S11302608EE091E00E94E90088E091E00E94E900BC
S113027082E091E00E94E9008CEF90E00E94E900A6
S113028086EF90E00E94E90080EF90E00E94E90090
S113029061E080E00E94AE008AEE90E00E94E900F6
S11302A084EE90E00E94E9008EED90E00E94E90067
S11302B088ED90E00E94E90082ED90E00E94E90060
S11302C08CEC90E00E94E90086EC90E00E94E9004A
S11302D080EC90E00E94E9008AEB90E00E94E90043
S11302E084EB90E00E94E9008EEA90E00E94E9002D
S11302F088EA90E00E94E90082EA90E00E94E90026
S11303008CE990E00E94E90062E080E00E94AE0087
S113031086E990E00E94E90080E990E00E94E9000B
S11303208AE890E00E94E90084E890E00E94E900F5
S11303308EE790E00E94E90088E790E00E94E900DF
S113034082E790E00E94E9008CE690E00E94E900D8
S113035086E690E00E94E90080E690E00E94E900D1
S1090360FFCFF894FFCF6B
S11303660C9292523C006C9292926C0002E2120A37
S113037606007894929260004E8A8A8A7200302827
S113038624FE200042828A96620084C2A2928C00D5
S11303960084FE8000007CA2928A7C00C2A2928A1B
S11303A686000608F0080600C6281028C6007E80C7
S11303B670807E001E6080601E007E8080807E00CD
S11303C60202FE0202008C9292926200FE123252E5
S11303D68C007C82A242BC00FE1212120C007C82AB
S11303E682827C00FE081020FE00FE041804FE0033
S11303F6FE8080808000FE10284482004080827E39
S113040602000082FE820000FE101010FE007C82B4
S113041682A26400FE1212120200FE9292928200DE
S1130426FE8282827C007C8282824400FE929292C8
S10B04366C00FC222222FC00F0
S9030000FC
